{
  "contractName": "Election",
  "abi": [
    {
      "inputs": [],
      "payable": false,
      "stateMutability": "nonpayable",
      "type": "constructor"
    },
    {
      "anonymous": false,
      "inputs": [
        {
          "indexed": true,
          "internalType": "uint256",
          "name": "_candidateId",
          "type": "uint256"
        }
      ],
      "name": "votedEvent",
      "type": "event"
    },
    {
      "constant": true,
      "inputs": [
        {
          "internalType": "uint256",
          "name": "",
          "type": "uint256"
        }
      ],
      "name": "candidates",
      "outputs": [
        {
          "internalType": "uint256",
          "name": "id",
          "type": "uint256"
        },
        {
          "internalType": "string",
          "name": "name",
          "type": "string"
        },
        {
          "internalType": "uint256",
          "name": "voteCount",
          "type": "uint256"
        }
      ],
      "payable": false,
      "stateMutability": "view",
      "type": "function"
    },
    {
      "constant": true,
      "inputs": [],
      "name": "candidatesCount",
      "outputs": [
        {
          "internalType": "uint256",
          "name": "",
          "type": "uint256"
        }
      ],
      "payable": false,
      "stateMutability": "view",
      "type": "function"
    },
    {
      "constant": true,
      "inputs": [
        {
          "internalType": "address",
          "name": "",
          "type": "address"
        }
      ],
      "name": "voters",
      "outputs": [
        {
          "internalType": "bool",
          "name": "",
          "type": "bool"
        }
      ],
      "payable": false,
      "stateMutability": "view",
      "type": "function"
    },
    {
      "constant": false,
      "inputs": [
        {
          "internalType": "uint256",
          "name": "_candidateId",
          "type": "uint256"
        }
      ],
      "name": "vote",
      "outputs": [],
      "payable": false,
      "stateMutability": "nonpayable",
      "type": "function"
    }
  ],
  "bytecode": "0x608060405234801561001057600080fd5b506100556040518060400160405280600a81526020017f4a6f686e20536d6974680000000000000000000000000000000000000000000081525061012660201b60201c565b6100996040518060400160405280600881526020017f4a6f686e20446f6500000000000000000000000000000000000000000000000081525061012660201b60201c565b6100dd6040518060400160405280600a81526020017f4a616d6573204465616e0000000000000000000000000000000000000000000081525061012660201b60201c565b6101216040518060400160405280600e81526020017f526f62657274204a6f686e736f6e00000000000000000000000000000000000081525061012660201b60201c565b610247565b6002600081548092919060010191905055506040518060600160405280600254815260200182815260200160008152506001600060025481526020019081526020016000206000820151816000015560208201518160010190805190602001906101919291906101a2565b506040820151816002015590505050565b828054600181600116156101000203166002900490600052602060002090601f016020900481019282601f106101e357805160ff1916838001178555610211565b82800160010185558215610211579182015b828111156102105782518255916020019190600101906101f5565b5b50905061021e9190610222565b5090565b61024491905b80821115610240576000816000905550600101610228565b5090565b90565b6103e9806102566000396000f3fe608060405234801561001057600080fd5b506004361061004c5760003560e01c80630121b93f146100515780632d35a8a21461007f5780633477ee2e1461009d578063a3ec138d14610152575b600080fd5b61007d6004803603602081101561006757600080fd5b81019080803590602001909291905050506101ae565b005b6100876102cc565b6040518082815260200191505060405180910390f35b6100c9600480360360208110156100b357600080fd5b81019080803590602001909291905050506102d2565b6040518084815260200180602001838152602001828103825284818151815260200191508051906020019080838360005b838110156101155780820151818401526020810190506100fa565b50505050905090810190601f1680156101425780820380516001836020036101000a031916815260200191505b5094505050505060405180910390f35b6101946004803603602081101561016857600080fd5b81019080803573ffffffffffffffffffffffffffffffffffffffff169060200190929190505050610394565b604051808215151515815260200191505060405180910390f35b6000803373ffffffffffffffffffffffffffffffffffffffff1673ffffffffffffffffffffffffffffffffffffffff16815260200190815260200160002060009054906101000a900460ff161561020457600080fd5b60008111801561021657506002548111155b61021f57600080fd5b60016000803373ffffffffffffffffffffffffffffffffffffffff1673ffffffffffffffffffffffffffffffffffffffff16815260200190815260200160002060006101000a81548160ff0219169083151502179055506001600082815260200190815260200160002060020160008154809291906001019190505550807ffff3c900d938d21d0990d786e819f29b8d05c1ef587b462b939609625b684b1660405160405180910390a250565b60025481565b6001602052806000526040600020600091509050806000015490806001018054600181600116156101000203166002900480601f0160208091040260200160405190810160405280929190818152602001828054600181600116156101000203166002900480156103845780601f1061035957610100808354040283529160200191610384565b820191906000526020600020905b81548152906001019060200180831161036757829003601f168201915b5050505050908060020154905083565b60006020528060005260406000206000915054906101000a900460ff168156fea265627a7a7231582014f7fe7f4f520ce8a63ada90ef7fab8435b2b38396d03c8955dee138de798d1264736f6c63430005100032",
  "source": "pragma solidity >=0.4.2;\r\n\r\ncontract Election {\r\n    //structure for a candidate\r\n    struct Candidate {\r\n        uint256 id;\r\n        string name;\r\n        uint256 voteCount;\r\n    }\r\n\r\n    //accounts that voted\r\n    mapping(address => bool) public voters;\r\n\r\n    // store and retrieve the candidates\r\n    mapping(uint256 => Candidate) public candidates;\r\n\r\n    uint256 public candidatesCount;\r\n\r\n    event votedEvent(uint256 indexed _candidateId);\r\n\r\n    //Constructor\r\n    constructor() public {\r\n        addCandidate(\"John Smith\");\r\n        addCandidate(\"John Doe\");\r\n        addCandidate(\"James Dean\");\r\n        addCandidate(\"Robert Johnson\");\r\n    }\r\n\r\n    function addCandidate(string memory _name) private {\r\n        candidatesCount++;\r\n        candidates[candidatesCount] = Candidate(candidatesCount, _name, 0);\r\n    }\r\n\r\n    function vote(uint256 _candidateId) public {\r\n        require(!voters[msg.sender]);\r\n\r\n        // candidate is valid.\r\n        require(_candidateId > 0 && _candidateId <= candidatesCount);\r\n\r\n        // has voted.\r\n        voters[msg.sender] = true;\r\n\r\n        // increment the vote count\r\n        candidates[_candidateId].voteCount++;\r\n\r\n        emit votedEvent(_candidateId);\r\n    }\r\n}\r\n",
  "sourcePath": "C:\\Users\\Byron Chung\\Coding Projects\\election\\contracts\\Election.sol",
  "compiler": {
    "name": "solc",
    "version": "0.5.16+commit.9c3226ce.Emscripten.clang"
  },
  "schemaVersion": "3.4.2",
  "updatedAt": "2021-08-30T18:46:23.559Z",
  "networkType": "ethereum",
  "devdoc": {
    "methods": {}
  },
  "userdoc": {
    "methods": {}
  }
}